{
  "contractName": "LockletTokenVault",
  "abi": [
    {
      "inputs": [
        {
          "internalType": "address",
          "name": "lockletTokenAddr",
          "type": "address"
        }
      ],
      "stateMutability": "nonpayable",
      "type": "constructor"
    },
    {
      "anonymous": false,
      "inputs": [
        {
          "indexed": false,
          "internalType": "uint256",
          "name": "lockIndex",
          "type": "uint256"
        }
      ],
      "name": "LockAdded",
      "type": "event"
    },
    {
      "anonymous": false,
      "inputs": [
        {
          "indexed": true,
          "internalType": "address",
          "name": "recipientAddress",
          "type": "address"
        },
        {
          "indexed": true,
          "internalType": "address",
          "name": "tokenAddress",
          "type": "address"
        },
        {
          "indexed": false,
          "internalType": "uint256",
          "name": "refundedAmount",
          "type": "uint256"
        }
      ],
      "name": "LockRefundPulled",
      "type": "event"
    },
    {
      "anonymous": false,
      "inputs": [
        {
          "indexed": false,
          "internalType": "uint256",
          "name": "lockIndex",
          "type": "uint256"
        },
        {
          "indexed": false,
          "internalType": "uint256",
          "name": "unlockedAmount",
          "type": "uint256"
        },
        {
          "indexed": false,
          "internalType": "uint256",
          "name": "remainingLockedAmount",
          "type": "uint256"
        }
      ],
      "name": "LockRevoked",
      "type": "event"
    },
    {
      "anonymous": false,
      "inputs": [
        {
          "indexed": false,
          "internalType": "uint256",
          "name": "lockIndex",
          "type": "uint256"
        },
        {
          "indexed": true,
          "internalType": "address",
          "name": "recipientAddress",
          "type": "address"
        },
        {
          "indexed": false,
          "internalType": "uint256",
          "name": "claimedAmount",
          "type": "uint256"
        }
      ],
      "name": "LockedTokensClaimed",
      "type": "event"
    },
    {
      "anonymous": false,
      "inputs": [
        {
          "indexed": false,
          "internalType": "address",
          "name": "account",
          "type": "address"
        }
      ],
      "name": "Paused",
      "type": "event"
    },
    {
      "anonymous": false,
      "inputs": [
        {
          "indexed": true,
          "internalType": "bytes32",
          "name": "role",
          "type": "bytes32"
        },
        {
          "indexed": true,
          "internalType": "bytes32",
          "name": "previousAdminRole",
          "type": "bytes32"
        },
        {
          "indexed": true,
          "internalType": "bytes32",
          "name": "newAdminRole",
          "type": "bytes32"
        }
      ],
      "name": "RoleAdminChanged",
      "type": "event"
    },
    {
      "anonymous": false,
      "inputs": [
        {
          "indexed": true,
          "internalType": "bytes32",
          "name": "role",
          "type": "bytes32"
        },
        {
          "indexed": true,
          "internalType": "address",
          "name": "account",
          "type": "address"
        },
        {
          "indexed": true,
          "internalType": "address",
          "name": "sender",
          "type": "address"
        }
      ],
      "name": "RoleGranted",
      "type": "event"
    },
    {
      "anonymous": false,
      "inputs": [
        {
          "indexed": true,
          "internalType": "bytes32",
          "name": "role",
          "type": "bytes32"
        },
        {
          "indexed": true,
          "internalType": "address",
          "name": "account",
          "type": "address"
        },
        {
          "indexed": true,
          "internalType": "address",
          "name": "sender",
          "type": "address"
        }
      ],
      "name": "RoleRevoked",
      "type": "event"
    },
    {
      "anonymous": false,
      "inputs": [
        {
          "indexed": false,
          "internalType": "address",
          "name": "account",
          "type": "address"
        }
      ],
      "name": "Unpaused",
      "type": "event"
    },
    {
      "inputs": [],
      "name": "DEFAULT_ADMIN_ROLE",
      "outputs": [
        {
          "internalType": "bytes32",
          "name": "",
          "type": "bytes32"
        }
      ],
      "stateMutability": "view",
      "type": "function",
      "constant": true
    },
    {
      "inputs": [],
      "name": "GOVERNOR_ROLE",
      "outputs": [
        {
          "internalType": "bytes32",
          "name": "",
          "type": "bytes32"
        }
      ],
      "stateMutability": "view",
      "type": "function",
      "constant": true
    },
    {
      "inputs": [
        {
          "internalType": "bytes32",
          "name": "role",
          "type": "bytes32"
        }
      ],
      "name": "getRoleAdmin",
      "outputs": [
        {
          "internalType": "bytes32",
          "name": "",
          "type": "bytes32"
        }
      ],
      "stateMutability": "view",
      "type": "function",
      "constant": true
    },
    {
      "inputs": [
        {
          "internalType": "bytes32",
          "name": "role",
          "type": "bytes32"
        },
        {
          "internalType": "address",
          "name": "account",
          "type": "address"
        }
      ],
      "name": "grantRole",
      "outputs": [],
      "stateMutability": "nonpayable",
      "type": "function"
    },
    {
      "inputs": [
        {
          "internalType": "bytes32",
          "name": "role",
          "type": "bytes32"
        },
        {
          "internalType": "address",
          "name": "account",
          "type": "address"
        }
      ],
      "name": "hasRole",
      "outputs": [
        {
          "internalType": "bool",
          "name": "",
          "type": "bool"
        }
      ],
      "stateMutability": "view",
      "type": "function",
      "constant": true
    },
    {
      "inputs": [],
      "name": "lockletTokenAddress",
      "outputs": [
        {
          "internalType": "address",
          "name": "",
          "type": "address"
        }
      ],
      "stateMutability": "view",
      "type": "function",
      "constant": true
    },
    {
      "inputs": [],
      "name": "paused",
      "outputs": [
        {
          "internalType": "bool",
          "name": "",
          "type": "bool"
        }
      ],
      "stateMutability": "view",
      "type": "function",
      "constant": true
    },
    {
      "inputs": [
        {
          "internalType": "bytes32",
          "name": "role",
          "type": "bytes32"
        },
        {
          "internalType": "address",
          "name": "account",
          "type": "address"
        }
      ],
      "name": "renounceRole",
      "outputs": [],
      "stateMutability": "nonpayable",
      "type": "function"
    },
    {
      "inputs": [
        {
          "internalType": "bytes32",
          "name": "role",
          "type": "bytes32"
        },
        {
          "internalType": "address",
          "name": "account",
          "type": "address"
        }
      ],
      "name": "revokeRole",
      "outputs": [],
      "stateMutability": "nonpayable",
      "type": "function"
    },
    {
      "inputs": [
        {
          "internalType": "bytes4",
          "name": "interfaceId",
          "type": "bytes4"
        }
      ],
      "name": "supportsInterface",
      "outputs": [
        {
          "internalType": "bool",
          "name": "",
          "type": "bool"
        }
      ],
      "stateMutability": "view",
      "type": "function",
      "constant": true
    },
    {
      "inputs": [
        {
          "internalType": "address",
          "name": "tokenAddress",
          "type": "address"
        },
        {
          "internalType": "uint256",
          "name": "totalAmount",
          "type": "uint256"
        },
        {
          "internalType": "uint16",
          "name": "cliffInDays",
          "type": "uint16"
        },
        {
          "internalType": "uint16",
          "name": "durationInDays",
          "type": "uint16"
        },
        {
          "components": [
            {
              "internalType": "address",
              "name": "recipientAddress",
              "type": "address"
            },
            {
              "internalType": "uint256",
              "name": "amount",
              "type": "uint256"
            }
          ],
          "internalType": "struct LockletTokenVault.RecipientCallData[]",
          "name": "recipientsData",
          "type": "tuple[]"
        },
        {
          "internalType": "bool",
          "name": "isRevocable",
          "type": "bool"
        },
        {
          "internalType": "bool",
          "name": "payFeesWithLkt",
          "type": "bool"
        }
      ],
      "name": "addLock",
      "outputs": [],
      "stateMutability": "nonpayable",
      "type": "function"
    },
    {
      "inputs": [
        {
          "internalType": "uint256",
          "name": "lockIndex",
          "type": "uint256"
        }
      ],
      "name": "claimLockedTokens",
      "outputs": [],
      "stateMutability": "nonpayable",
      "type": "function"
    },
    {
      "inputs": [
        {
          "internalType": "uint256",
          "name": "lockIndex",
          "type": "uint256"
        }
      ],
      "name": "revokeLock",
      "outputs": [],
      "stateMutability": "nonpayable",
      "type": "function"
    },
    {
      "inputs": [
        {
          "internalType": "address",
          "name": "tokenAddress",
          "type": "address"
        }
      ],
      "name": "pullRefund",
      "outputs": [],
      "stateMutability": "nonpayable",
      "type": "function"
    },
    {
      "inputs": [
        {
          "internalType": "address",
          "name": "initiatorAddress",
          "type": "address"
        }
      ],
      "name": "getLocksByInitiator",
      "outputs": [
        {
          "components": [
            {
              "components": [
                {
                  "internalType": "address",
                  "name": "tokenAddress",
                  "type": "address"
                },
                {
                  "internalType": "uint256",
                  "name": "startTime",
                  "type": "uint256"
                },
                {
                  "internalType": "uint16",
                  "name": "durationInDays",
                  "type": "uint16"
                },
                {
                  "internalType": "address",
                  "name": "initiatorAddress",
                  "type": "address"
                },
                {
                  "internalType": "bool",
                  "name": "isRevocable",
                  "type": "bool"
                },
                {
                  "internalType": "bool",
                  "name": "isActive",
                  "type": "bool"
                }
              ],
              "internalType": "struct LockletTokenVault.Lock",
              "name": "lock",
              "type": "tuple"
            },
            {
              "components": [
                {
                  "internalType": "address",
                  "name": "recipientAddress",
                  "type": "address"
                },
                {
                  "internalType": "uint256",
                  "name": "amount",
                  "type": "uint256"
                },
                {
                  "internalType": "uint16",
                  "name": "daysClaimed",
                  "type": "uint16"
                },
                {
                  "internalType": "uint256",
                  "name": "amountClaimed",
                  "type": "uint256"
                },
                {
                  "internalType": "bool",
                  "name": "isActive",
                  "type": "bool"
                }
              ],
              "internalType": "struct LockletTokenVault.Recipient[]",
              "name": "recipients",
              "type": "tuple[]"
            }
          ],
          "internalType": "struct LockletTokenVault.LockWithRecipients[]",
          "name": "",
          "type": "tuple[]"
        }
      ],
      "stateMutability": "view",
      "type": "function",
      "constant": true
    },
    {
      "inputs": [
        {
          "internalType": "address",
          "name": "recipientAddress",
          "type": "address"
        }
      ],
      "name": "getLocksByRecipient",
      "outputs": [
        {
          "components": [
            {
              "components": [
                {
                  "internalType": "address",
                  "name": "tokenAddress",
                  "type": "address"
                },
                {
                  "internalType": "uint256",
                  "name": "startTime",
                  "type": "uint256"
                },
                {
                  "internalType": "uint16",
                  "name": "durationInDays",
                  "type": "uint16"
                },
                {
                  "internalType": "address",
                  "name": "initiatorAddress",
                  "type": "address"
                },
                {
                  "internalType": "bool",
                  "name": "isRevocable",
                  "type": "bool"
                },
                {
                  "internalType": "bool",
                  "name": "isActive",
                  "type": "bool"
                }
              ],
              "internalType": "struct LockletTokenVault.Lock",
              "name": "lock",
              "type": "tuple"
            },
            {
              "components": [
                {
                  "internalType": "address",
                  "name": "recipientAddress",
                  "type": "address"
                },
                {
                  "internalType": "uint256",
                  "name": "amount",
                  "type": "uint256"
                },
                {
                  "internalType": "uint16",
                  "name": "daysClaimed",
                  "type": "uint16"
                },
                {
                  "internalType": "uint256",
                  "name": "amountClaimed",
                  "type": "uint256"
                },
                {
                  "internalType": "bool",
                  "name": "isActive",
                  "type": "bool"
                }
              ],
              "internalType": "struct LockletTokenVault.Recipient[]",
              "name": "recipients",
              "type": "tuple[]"
            }
          ],
          "internalType": "struct LockletTokenVault.LockWithRecipients[]",
          "name": "",
          "type": "tuple[]"
        }
      ],
      "stateMutability": "view",
      "type": "function",
      "constant": true
    },
    {
      "inputs": [],
      "name": "getCreationFlatFeeLktAmount",
      "outputs": [
        {
          "internalType": "uint256",
          "name": "",
          "type": "uint256"
        }
      ],
      "stateMutability": "view",
      "type": "function",
      "constant": true
    },
    {
      "inputs": [],
      "name": "getRevocationFlatFeeLktAmount",
      "outputs": [
        {
          "internalType": "uint256",
          "name": "",
          "type": "uint256"
        }
      ],
      "stateMutability": "view",
      "type": "function",
      "constant": true
    },
    {
      "inputs": [],
      "name": "getCreationPercentFee",
      "outputs": [
        {
          "internalType": "uint256",
          "name": "",
          "type": "uint256"
        }
      ],
      "stateMutability": "view",
      "type": "function",
      "constant": true
    },
    {
      "inputs": [],
      "name": "isDeprecated",
      "outputs": [
        {
          "internalType": "bool",
          "name": "",
          "type": "bool"
        }
      ],
      "stateMutability": "view",
      "type": "function",
      "constant": true
    },
    {
      "inputs": [
        {
          "internalType": "uint256",
          "name": "amount",
          "type": "uint256"
        }
      ],
      "name": "setCreationFlatFeeLktAmount",
      "outputs": [],
      "stateMutability": "nonpayable",
      "type": "function"
    },
    {
      "inputs": [
        {
          "internalType": "uint256",
          "name": "amount",
          "type": "uint256"
        }
      ],
      "name": "setRevocationFlatFeeLktAmount",
      "outputs": [],
      "stateMutability": "nonpayable",
      "type": "function"
    },
    {
      "inputs": [
        {
          "internalType": "uint256",
          "name": "amount",
          "type": "uint256"
        }
      ],
      "name": "setCreationPercentFee",
      "outputs": [],
      "stateMutability": "nonpayable",
      "type": "function"
    },
    {
      "inputs": [
        {
          "internalType": "address",
          "name": "addr",
          "type": "address"
        }
      ],
      "name": "setStakersRedisAddress",
      "outputs": [],
      "stateMutability": "nonpayable",
      "type": "function"
    },
    {
      "inputs": [],
      "name": "pause",
      "outputs": [],
      "stateMutability": "nonpayable",
      "type": "function"
    },
    {
      "inputs": [],
      "name": "unpause",
      "outputs": [],
      "stateMutability": "nonpayable",
      "type": "function"
    },
    {
      "inputs": [
        {
          "internalType": "bool",
          "name": "deprecated",
          "type": "bool"
        }
      ],
      "name": "setDeprecated",
      "outputs": [],
      "stateMutability": "nonpayable",
      "type": "function"
    }
  ],
  "bytecode": "0x60806040523480156200001157600080fd5b506040516200573338038062005733833981810160405281019062000037919062000342565b6000600160006101000a81548160ff021916908315150217905550806001806101000a81548173ffffffffffffffffffffffffffffffffffffffff021916908373ffffffffffffffffffffffffffffffffffffffff16021790555060006002819055506000600860006101000a81548173ffffffffffffffffffffffffffffffffffffffff021916908373ffffffffffffffffffffffffffffffffffffffff1602179055507325bd291be258e90e7a0648ac5c690555aa9e8930600960006101000a81548173ffffffffffffffffffffffffffffffffffffffff021916908373ffffffffffffffffffffffffffffffffffffffff1602179055506000600960146101000a81548160ff0219169083151502179055506000600a819055506000600b819055506000600c81905550620001796000801b33620001b260201b60201c565b620001ab7f7935bd0ae54bc31f548c14dba4d37c5c64b3f8ca900cb468fb8abd54d5894f5533620001b260201b60201c565b50620003bc565b620001c48282620001c860201b60201c565b5050565b620001da8282620002b960201b60201c565b620002b557600160008084815260200190815260200160002060000160008373ffffffffffffffffffffffffffffffffffffffff1673ffffffffffffffffffffffffffffffffffffffff16815260200190815260200160002060006101000a81548160ff0219169083151502179055506200025a6200032360201b60201c565b73ffffffffffffffffffffffffffffffffffffffff168173ffffffffffffffffffffffffffffffffffffffff16837f2f8788117e7eff1d82e926ec794901d17c78024a50270940304540a733656f0d60405160405180910390a45b5050565b600080600084815260200190815260200160002060000160008373ffffffffffffffffffffffffffffffffffffffff1673ffffffffffffffffffffffffffffffffffffffff16815260200190815260200160002060009054906101000a900460ff16905092915050565b600033905090565b6000815190506200033c81620003a2565b92915050565b6000602082840312156200035557600080fd5b600062000365848285016200032b565b91505092915050565b60006200037b8262000382565b9050919050565b600073ffffffffffffffffffffffffffffffffffffffff82169050919050565b620003ad816200036e565b8114620003b957600080fd5b50565b61536780620003cc6000396000f3fe608060405234801561001057600080fd5b50600436106101a95760003560e01c80638df8123e116100f9578063c369b89a11610097578063cfcc64a211610071578063cfcc64a214610480578063d120ed561461049e578063d547741f146104ba578063d848dee7146104d6576101a9565b8063c369b89a14610426578063c717823014610444578063ccc5749014610462576101a9565b8063ac7a87fa116100d3578063ac7a87fa146103b4578063ad8d3856146103d2578063b9b3b8a9146103ee578063bff015681461040a576101a9565b80638df8123e1461034a57806391d1485414610366578063a217fddf14610396576101a9565b80633aab80d41161016657806369a554631161014057806369a55463146102ec57806375e116931461030857806378aeee47146103245780638456cb5914610340576101a9565b80633aab80d4146102a65780633f4ba83a146102c45780635c975abb146102ce576101a9565b806301ffc9a7146101ae5780631c331b67146101de578063248a9ca31461020e5780632f2ff15d1461023e57806336568abe1461025a578063379ec85514610276575b600080fd5b6101c860048036038101906101c39190613e12565b6104f2565b6040516101d591906144e6565b60405180910390f35b6101f860048036038101906101f39190613c78565b61056c565b60405161020591906144c4565b60405180910390f35b61022860048036038101906102239190613dad565b6109ea565b6040516102359190614501565b60405180910390f35b61025860048036038101906102539190613dd6565b610a09565b005b610274600480360381019061026f9190613dd6565b610a6f565b005b610290600480360381019061028b9190613c78565b610af2565b60405161029d91906144c4565b60405180910390f35b6102ae610f70565b6040516102bb91906147fc565b60405180910390f35b6102cc610f7a565b005b6102d6610fed565b6040516102e391906144e6565b60405180910390f35b61030660048036038101906103019190613e3b565b611004565b005b610322600480360381019061031d9190613ca1565b611077565b005b61033e60048036038101906103399190613e3b565b612003565b005b610348612076565b005b610364600480360381019061035f9190613e3b565b6120e9565b005b610380600480360381019061037b9190613dd6565b612aa9565b60405161038d91906144e6565b60405180910390f35b61039e612b13565b6040516103ab9190614501565b60405180910390f35b6103bc612b1a565b6040516103c991906147fc565b60405180910390f35b6103ec60048036038101906103e79190613c78565b612b24565b005b61040860048036038101906104039190613e3b565b612bd1565b005b610424600480360381019061041f9190613c78565b612c44565b005b61042e612f0d565b60405161043b91906147fc565b60405180910390f35b61044c612f17565b60405161045991906144e6565b60405180910390f35b61046a612f2e565b6040516104779190614501565b60405180910390f35b610488612f52565b6040516104959190614449565b60405180910390f35b6104b860048036038101906104b39190613e3b565b612f76565b005b6104d460048036038101906104cf9190613dd6565b61346e565b005b6104f060048036038101906104eb9190613d5b565b6134d4565b005b60007f7965db0b000000000000000000000000000000000000000000000000000000007bffffffffffffffffffffffffffffffffffffffffffffffffffffffff1916827bffffffffffffffffffffffffffffffffffffffffffffffffffffffff1916148061056557506105648261355a565b5b9050919050565b60606000600560008473ffffffffffffffffffffffffffffffffffffffff1673ffffffffffffffffffffffffffffffffffffffff168152602001908152602001600020805490509050600081116105f8576040517f08c379a00000000000000000000000000000000000000000000000000000000081526004016105ef9061475c565b60405180910390fd5b60008167ffffffffffffffff81111561063a577f4e487b7100000000000000000000000000000000000000000000000000000000600052604160045260246000fd5b60405190808252806020026020018201604052801561067357816020015b610660613afc565b8152602001906001900390816106585790505b50905060005b828110156109df576000600560008773ffffffffffffffffffffffffffffffffffffffff1673ffffffffffffffffffffffffffffffffffffffff16815260200190815260200160002082815481106106fa577f4e487b7100000000000000000000000000000000000000000000000000000000600052603260045260246000fd5b9060005260206000200154905060405180604001604052806003838154811061074c577f4e487b7100000000000000000000000000000000000000000000000000000000600052603260045260246000fd5b90600052602060002090600302016040518060c00160405290816000820160009054906101000a900473ffffffffffffffffffffffffffffffffffffffff1673ffffffffffffffffffffffffffffffffffffffff1673ffffffffffffffffffffffffffffffffffffffff168152602001600182015481526020016002820160009054906101000a900461ffff1661ffff1661ffff1681526020016002820160029054906101000a900473ffffffffffffffffffffffffffffffffffffffff1673ffffffffffffffffffffffffffffffffffffffff1673ffffffffffffffffffffffffffffffffffffffff1681526020016002820160169054906101000a900460ff161515151581526020016002820160179054906101000a900460ff161515151581525050815260200160046000848152602001908152602001600020805480602002602001604051908101604052809291908181526020016000905b8282101561098057838290600052602060002090600502016040518060a00160405290816000820160009054906101000a900473ffffffffffffffffffffffffffffffffffffffff1673ffffffffffffffffffffffffffffffffffffffff1673ffffffffffffffffffffffffffffffffffffffff168152602001600182015481526020016002820160009054906101000a900461ffff1661ffff1661ffff168152602001600382015481526020016004820160009054906101000a900460ff161515151581525050815260200190600101906108a9565b505050508152508383815181106109c0577f4e487b7100000000000000000000000000000000000000000000000000000000600052603260045260246000fd5b60200260200101819052505080806109d790614ae7565b915050610679565b508092505050919050565b6000806000838152602001908152602001600020600101549050919050565b610a22610a15836109ea565b610a1d6135c4565b612aa9565b610a61576040517f08c379a0000000000000000000000000000000000000000000000000000000008152600401610a589061453c565b60405180910390fd5b610a6b82826135cc565b5050565b610a776135c4565b73ffffffffffffffffffffffffffffffffffffffff168173ffffffffffffffffffffffffffffffffffffffff1614610ae4576040517f08c379a0000000000000000000000000000000000000000000000000000000008152600401610adb906147bc565b60405180910390fd5b610aee82826136ac565b5050565b60606000600660008473ffffffffffffffffffffffffffffffffffffffff1673ffffffffffffffffffffffffffffffffffffffff16815260200190815260200160002080549050905060008111610b7e576040517f08c379a0000000000000000000000000000000000000000000000000000000008152600401610b75906147dc565b60405180910390fd5b60008167ffffffffffffffff811115610bc0577f4e487b7100000000000000000000000000000000000000000000000000000000600052604160045260246000fd5b604051908082528060200260200182016040528015610bf957816020015b610be6613afc565b815260200190600190039081610bde5790505b50905060005b82811015610f65576000600660008773ffffffffffffffffffffffffffffffffffffffff1673ffffffffffffffffffffffffffffffffffffffff1681526020019081526020016000208281548110610c80577f4e487b7100000000000000000000000000000000000000000000000000000000600052603260045260246000fd5b90600052602060002001549050604051806040016040528060038381548110610cd2577f4e487b7100000000000000000000000000000000000000000000000000000000600052603260045260246000fd5b90600052602060002090600302016040518060c00160405290816000820160009054906101000a900473ffffffffffffffffffffffffffffffffffffffff1673ffffffffffffffffffffffffffffffffffffffff1673ffffffffffffffffffffffffffffffffffffffff168152602001600182015481526020016002820160009054906101000a900461ffff1661ffff1661ffff1681526020016002820160029054906101000a900473ffffffffffffffffffffffffffffffffffffffff1673ffffffffffffffffffffffffffffffffffffffff1673ffffffffffffffffffffffffffffffffffffffff1681526020016002820160169054906101000a900460ff161515151581526020016002820160179054906101000a900460ff161515151581525050815260200160046000848152602001908152602001600020805480602002602001604051908101604052809291908181526020016000905b82821015610f0657838290600052602060002090600502016040518060a00160405290816000820160009054906101000a900473ffffffffffffffffffffffffffffffffffffffff1673ffffffffffffffffffffffffffffffffffffffff1673ffffffffffffffffffffffffffffffffffffffff168152602001600182015481526020016002820160009054906101000a900461ffff1661ffff1661ffff168152602001600382015481526020016004820160009054906101000a900460ff16151515158152505081526020019060010190610e2f565b50505050815250838381518110610f46577f4e487b7100000000000000000000000000000000000000000000000000000000600052603260045260246000fd5b6020026020010181905250508080610f5d90614ae7565b915050610bff565b508092505050919050565b6000600c54905090565b610fa47f7935bd0ae54bc31f548c14dba4d37c5c64b3f8ca900cb468fb8abd54d5894f5533612aa9565b610fe3576040517f08c379a0000000000000000000000000000000000000000000000000000000008152600401610fda906146dc565b60405180910390fd5b610feb61378d565b565b6000600160009054906101000a900460ff16905090565b61102e7f7935bd0ae54bc31f548c14dba4d37c5c64b3f8ca900cb468fb8abd54d5894f5533612aa9565b61106d576040517f08c379a0000000000000000000000000000000000000000000000000000000008152600401611064906146dc565b60405180910390fd5b80600a8190555050565b61107f610fed565b156110bf576040517f08c379a00000000000000000000000000000000000000000000000000000000081526004016110b69061465c565b60405180910390fd5b600960149054906101000a900460ff161561110f576040517f08c379a0000000000000000000000000000000000000000000000000000000008152600401611106906145dc565b60405180910390fd5b6111188861382f565b611157576040517f08c379a000000000000000000000000000000000000000000000000000000000815260040161114e9061473c565b60405180910390fd5b60008890506000881161119f576040517f08c379a00000000000000000000000000000000000000000000000000000000081526004016111969061459c565b60405180910390fd5b81156117135760006111af613842565b9050600a548173ffffffffffffffffffffffffffffffffffffffff166370a08231336040518263ffffffff1660e01b81526004016111ed9190614449565b60206040518083038186803b15801561120557600080fd5b505afa158015611219573d6000803e3d6000fd5b505050506040513d601f19601f8201168201806040525081019061123d9190613e64565b101561127e576040517f08c379a00000000000000000000000000000000000000000000000000000000081526004016112759061477c565b60405180910390fd5b8073ffffffffffffffffffffffffffffffffffffffff166323b872dd3330600a546040518463ffffffff1660e01b81526004016112bd93929190614464565b602060405180830381600087803b1580156112d757600080fd5b505af11580156112eb573d6000803e3d6000fd5b505050506040513d601f19601f8201168201806040525081019061130f9190613d84565b61131857600080fd5b6000611343602d6113356064600a5461386a90919063ffffffff16565b61388090919063ffffffff16565b90506000611370602d6113626064600a5461386a90919063ffffffff16565b61388090919063ffffffff16565b9050600061139d600a61138f6064600a5461386a90919063ffffffff16565b61388090919063ffffffff16565b90508373ffffffffffffffffffffffffffffffffffffffff166342966c68846040518263ffffffff1660e01b81526004016113d891906147fc565b602060405180830381600087803b1580156113f257600080fd5b505af1158015611406573d6000803e3d6000fd5b505050506040513d601f19601f8201168201806040525081019061142a9190613d84565b61143357600080fd5b8373ffffffffffffffffffffffffffffffffffffffff166323b872dd30600860009054906101000a900473ffffffffffffffffffffffffffffffffffffffff16856040518463ffffffff1660e01b815260040161149293929190614464565b602060405180830381600087803b1580156114ac57600080fd5b505af11580156114c0573d6000803e3d6000fd5b505050506040513d601f19601f820116820180604052508101906114e49190613d84565b6114ed57600080fd5b8373ffffffffffffffffffffffffffffffffffffffff166323b872dd30600960009054906101000a900473ffffffffffffffffffffffffffffffffffffffff16846040518463ffffffff1660e01b815260040161154c93929190614464565b602060405180830381600087803b15801561156657600080fd5b505af115801561157a573d6000803e3d6000fd5b505050506040513d601f19601f8201168201806040525081019061159e9190613d84565b6115a757600080fd5b8b8573ffffffffffffffffffffffffffffffffffffffff166370a08231336040518263ffffffff1660e01b81526004016115e19190614449565b60206040518083038186803b1580156115f957600080fd5b505afa15801561160d573d6000803e3d6000fd5b505050506040513d601f19601f820116820180604052508101906116319190613e64565b1015611672576040517f08c379a0000000000000000000000000000000000000000000000000000000008152600401611669906146fc565b60405180910390fd5b8473ffffffffffffffffffffffffffffffffffffffff166323b872dd33308f6040518463ffffffff1660e01b81526004016116af93929190614464565b602060405180830381600087803b1580156116c957600080fd5b505af11580156116dd573d6000803e3d6000fd5b505050506040513d601f19601f820116820180604052508101906117019190613d84565b61170a57600080fd5b50505050611a88565b600061173d600c5461172f60648c61386a90919063ffffffff16565b61388090919063ffffffff16565b90506000611754828b61389690919063ffffffff16565b9050808373ffffffffffffffffffffffffffffffffffffffff166370a08231336040518263ffffffff1660e01b81526004016117909190614449565b60206040518083038186803b1580156117a857600080fd5b505afa1580156117bc573d6000803e3d6000fd5b505050506040513d601f19601f820116820180604052508101906117e09190613e64565b1015611821576040517f08c379a0000000000000000000000000000000000000000000000000000000008152600401611818906146fc565b60405180910390fd5b8273ffffffffffffffffffffffffffffffffffffffff166323b872dd3330846040518463ffffffff1660e01b815260040161185e93929190614464565b602060405180830381600087803b15801561187857600080fd5b505af115801561188c573d6000803e3d6000fd5b505050506040513d601f19601f820116820180604052508101906118b09190613d84565b6118b957600080fd5b60006118e2605a6118d460648661386a90919063ffffffff16565b61388090919063ffffffff16565b9050600061190d600a6118ff60648761386a90919063ffffffff16565b61388090919063ffffffff16565b90508473ffffffffffffffffffffffffffffffffffffffff166323b872dd30600860009054906101000a900473ffffffffffffffffffffffffffffffffffffffff16856040518463ffffffff1660e01b815260040161196e93929190614464565b602060405180830381600087803b15801561198857600080fd5b505af115801561199c573d6000803e3d6000fd5b505050506040513d601f19601f820116820180604052508101906119c09190613d84565b6119c957600080fd5b8473ffffffffffffffffffffffffffffffffffffffff166323b872dd30600960009054906101000a900473ffffffffffffffffffffffffffffffffffffffff16846040518463ffffffff1660e01b8152600401611a2893929190614464565b602060405180830381600087803b158015611a4257600080fd5b505af1158015611a56573d6000803e3d6000fd5b505050506040513d601f19601f82011682018060405250810190611a7a9190613d84565b611a8357600080fd5b505050505b60006002549050611aa5600160025461389690919063ffffffff16565b60028190555060006040518060c001604052808c73ffffffffffffffffffffffffffffffffffffffff168152602001611b05620151808c61ffff16611aea9190614981565b62ffffff16611af76138ac565b61389690919063ffffffff16565b81526020018961ffff1681526020013373ffffffffffffffffffffffffffffffffffffffff16815260200160018a61ffff1611611b43576000611b45565b865b15158152602001600115158152509050600381908060018154018082558091505060019003906000526020600020906003020160009091909190915060008201518160000160006101000a81548173ffffffffffffffffffffffffffffffffffffffff021916908373ffffffffffffffffffffffffffffffffffffffff1602179055506020820151816001015560408201518160020160006101000a81548161ffff021916908361ffff16021790555060608201518160020160026101000a81548173ffffffffffffffffffffffffffffffffffffffff021916908373ffffffffffffffffffffffffffffffffffffffff16021790555060808201518160020160166101000a81548160ff02191690831515021790555060a08201518160020160176101000a81548160ff0219169083151502179055505050600560003373ffffffffffffffffffffffffffffffffffffffff1673ffffffffffffffffffffffffffffffffffffffff1681526020019081526020016000208290806001815401808255809150506001900390600052602060002001600090919091909150556000805b88889050811015611f7b5736898983818110611d2d577f4e487b7100000000000000000000000000000000000000000000000000000000600052603260045260246000fd5b90506040020190506000611d528c61ffff16836020013561386a90919063ffffffff16565b905060008111611d97576040517f08c379a0000000000000000000000000000000000000000000000000000000008152600401611d8e906145fc565b60405180910390fd5b611dae82602001358561389690919063ffffffff16565b935060006040518060a00160405280846000016020810190611dd09190613c78565b73ffffffffffffffffffffffffffffffffffffffff16815260200184602001358152602001600061ffff1681526020016000815260200160011515815250905060066000846000016020810190611e279190613c78565b73ffffffffffffffffffffffffffffffffffffffff1673ffffffffffffffffffffffffffffffffffffffff1681526020019081526020016000208790806001815401808255809150506001900390600052602060002001600090919091909150556004600088815260200190815260200160002081908060018154018082558091505060019003906000526020600020906005020160009091909190915060008201518160000160006101000a81548173ffffffffffffffffffffffffffffffffffffffff021916908373ffffffffffffffffffffffffffffffffffffffff1602179055506020820151816001015560408201518160020160006101000a81548161ffff021916908361ffff1602179055506060820151816003015560808201518160040160006101000a81548160ff02191690831515021790555050505050508080611f7390614ae7565b915050611ce8565b508a8114611fbe576040517f08c379a0000000000000000000000000000000000000000000000000000000008152600401611fb59061469c565b60405180910390fd5b7fae9e637442f959c48afe81f07e36a2c8be92a4cd09d5fb9a832755c98c96689783604051611fed91906147fc565b60405180910390a1505050505050505050505050565b61202d7f7935bd0ae54bc31f548c14dba4d37c5c64b3f8ca900cb468fb8abd54d5894f5533612aa9565b61206c576040517f08c379a0000000000000000000000000000000000000000000000000000000008152600401612063906146dc565b60405180910390fd5b80600b8190555050565b6120a07f7935bd0ae54bc31f548c14dba4d37c5c64b3f8ca900cb468fb8abd54d5894f5533612aa9565b6120df576040517f08c379a00000000000000000000000000000000000000000000000000000000081526004016120d6906146dc565b60405180910390fd5b6120e76138b4565b565b6120f1610fed565b15612131576040517f08c379a00000000000000000000000000000000000000000000000000000000081526004016121289061465c565b60405180910390fd5b60006003828154811061216d577f4e487b7100000000000000000000000000000000000000000000000000000000600052603260045260246000fd5b90600052602060002090600302019050600115158160020160179054906101000a900460ff161515146121d5576040517f08c379a00000000000000000000000000000000000000000000000000000000081526004016121cc9061461c565b60405180910390fd5b3373ffffffffffffffffffffffffffffffffffffffff168160020160029054906101000a900473ffffffffffffffffffffffffffffffffffffffff1673ffffffffffffffffffffffffffffffffffffffff1614612267576040517f08c379a000000000000000000000000000000000000000000000000000000000815260040161225e9061451c565b60405180910390fd5b600115158160020160169054906101000a900460ff161515146122bf576040517f08c379a00000000000000000000000000000000000000000000000000000000081526004016122b69061457c565b60405180910390fd5b60006122c9613842565b9050600b548173ffffffffffffffffffffffffffffffffffffffff166370a08231336040518263ffffffff1660e01b81526004016123079190614449565b60206040518083038186803b15801561231f57600080fd5b505afa158015612333573d6000803e3d6000fd5b505050506040513d601f19601f820116820180604052508101906123579190613e64565b1015612398576040517f08c379a000000000000000000000000000000000000000000000000000000000815260040161238f9061477c565b60405180910390fd5b8073ffffffffffffffffffffffffffffffffffffffff166323b872dd3330600b546040518463ffffffff1660e01b81526004016123d793929190614464565b602060405180830381600087803b1580156123f157600080fd5b505af1158015612405573d6000803e3d6000fd5b505050506040513d601f19601f820116820180604052508101906124299190613d84565b61243257600080fd5b600061245d602d61244f6064600a5461386a90919063ffffffff16565b61388090919063ffffffff16565b9050600061248a602d61247c6064600a5461386a90919063ffffffff16565b61388090919063ffffffff16565b905060006124b7600a6124a96064600a5461386a90919063ffffffff16565b61388090919063ffffffff16565b90508373ffffffffffffffffffffffffffffffffffffffff166342966c68846040518263ffffffff1660e01b81526004016124f291906147fc565b602060405180830381600087803b15801561250c57600080fd5b505af1158015612520573d6000803e3d6000fd5b505050506040513d601f19601f820116820180604052508101906125449190613d84565b61254d57600080fd5b8373ffffffffffffffffffffffffffffffffffffffff166323b872dd30600860009054906101000a900473ffffffffffffffffffffffffffffffffffffffff16856040518463ffffffff1660e01b81526004016125ac93929190614464565b602060405180830381600087803b1580156125c657600080fd5b505af11580156125da573d6000803e3d6000fd5b505050506040513d601f19601f820116820180604052508101906125fe9190613d84565b61260757600080fd5b8373ffffffffffffffffffffffffffffffffffffffff166323b872dd30600960009054906101000a900473ffffffffffffffffffffffffffffffffffffffff16846040518463ffffffff1660e01b815260040161266693929190614464565b602060405180830381600087803b15801561268057600080fd5b505af1158015612694573d6000803e3d6000fd5b505050506040513d601f19601f820116820180604052508101906126b89190613d84565b6126c157600080fd5b600060046000888152602001908152602001600020905060008660000160009054906101000a900473ffffffffffffffffffffffffffffffffffffffff16905060008760020160029054906101000a900473ffffffffffffffffffffffffffffffffffffffff16905060008060005b8580549050811015612939576000868281548110612777577f4e487b7100000000000000000000000000000000000000000000000000000000600052603260045260246000fd5b9060005260206000209060050201905061279e81600101548561389690919063ffffffff16565b93506000806127ad8e84613956565b809250819350505060008111156128f85760008360000160009054906101000a900473ffffffffffffffffffffffffffffffffffffffff16905061287682600760008473ffffffffffffffffffffffffffffffffffffffff1673ffffffffffffffffffffffffffffffffffffffff16815260200190815260200160002060008c73ffffffffffffffffffffffffffffffffffffffff1673ffffffffffffffffffffffffffffffffffffffff1681526020019081526020016000205461389690919063ffffffff16565b600760008373ffffffffffffffffffffffffffffffffffffffff1673ffffffffffffffffffffffffffffffffffffffff16815260200190815260200160002060008b73ffffffffffffffffffffffffffffffffffffffff1673ffffffffffffffffffffffffffffffffffffffff16815260200190815260200160002081905550505b61292161291282856003015461389690919063ffffffff16565b8661389690919063ffffffff16565b9450505050808061293190614ae7565b915050612730565b50600061294f8284613ae690919063ffffffff16565b90506129e081600760008773ffffffffffffffffffffffffffffffffffffffff1673ffffffffffffffffffffffffffffffffffffffff16815260200190815260200160002060008873ffffffffffffffffffffffffffffffffffffffff1673ffffffffffffffffffffffffffffffffffffffff1681526020019081526020016000205461389690919063ffffffff16565b600760008673ffffffffffffffffffffffffffffffffffffffff1673ffffffffffffffffffffffffffffffffffffffff16815260200190815260200160002060008773ffffffffffffffffffffffffffffffffffffffff1673ffffffffffffffffffffffffffffffffffffffff168152602001908152602001600020819055507f1b4338dedabe0dd7bb023807b0754e50a84ff4769a658679c739104ecddc31728c8383604051612a9393929190614840565b60405180910390a1505050505050505050505050565b600080600084815260200190815260200160002060000160008373ffffffffffffffffffffffffffffffffffffffff1673ffffffffffffffffffffffffffffffffffffffff16815260200190815260200160002060009054906101000a900460ff16905092915050565b6000801b81565b6000600a54905090565b612b4e7f7935bd0ae54bc31f548c14dba4d37c5c64b3f8ca900cb468fb8abd54d5894f5533612aa9565b612b8d576040517f08c379a0000000000000000000000000000000000000000000000000000000008152600401612b84906146dc565b60405180910390fd5b80600860006101000a81548173ffffffffffffffffffffffffffffffffffffffff021916908373ffffffffffffffffffffffffffffffffffffffff16021790555050565b612bfb7f7935bd0ae54bc31f548c14dba4d37c5c64b3f8ca900cb468fb8abd54d5894f5533612aa9565b612c3a576040517f08c379a0000000000000000000000000000000000000000000000000000000008152600401612c31906146dc565b60405180910390fd5b80600c8190555050565b612c4c610fed565b15612c8c576040517f08c379a0000000000000000000000000000000000000000000000000000000008152600401612c839061465c565b60405180910390fd5b6000600760003373ffffffffffffffffffffffffffffffffffffffff1673ffffffffffffffffffffffffffffffffffffffff16815260200190815260200160002060008373ffffffffffffffffffffffffffffffffffffffff1673ffffffffffffffffffffffffffffffffffffffff16815260200190815260200160002054905060008111612d50576040517f08c379a0000000000000000000000000000000000000000000000000000000008152600401612d479061479c565b60405180910390fd5b6000600760003373ffffffffffffffffffffffffffffffffffffffff1673ffffffffffffffffffffffffffffffffffffffff16815260200190815260200160002060008473ffffffffffffffffffffffffffffffffffffffff1673ffffffffffffffffffffffffffffffffffffffff1681526020019081526020016000208190555060008290508073ffffffffffffffffffffffffffffffffffffffff1663a9059cbb33846040518363ffffffff1660e01b8152600401612e1292919061449b565b602060405180830381600087803b158015612e2c57600080fd5b505af1158015612e40573d6000803e3d6000fd5b505050506040513d601f19601f82011682018060405250810190612e649190613d84565b612ea3576040517f08c379a0000000000000000000000000000000000000000000000000000000008152600401612e9a906145bc565b60405180910390fd5b8273ffffffffffffffffffffffffffffffffffffffff163373ffffffffffffffffffffffffffffffffffffffff167f5efeddcbae8eaffd5daf093c7d7873f1ddf12a977609e5708728596036943c3a84604051612f0091906147fc565b60405180910390a3505050565b6000600b54905090565b6000600960149054906101000a900460ff16905090565b7f7935bd0ae54bc31f548c14dba4d37c5c64b3f8ca900cb468fb8abd54d5894f5581565b60018054906101000a900473ffffffffffffffffffffffffffffffffffffffff1681565b612f7e610fed565b15612fbe576040517f08c379a0000000000000000000000000000000000000000000000000000000008152600401612fb59061465c565b60405180910390fd5b600060038281548110612ffa577f4e487b7100000000000000000000000000000000000000000000000000000000600052603260045260246000fd5b90600052602060002090600302019050600115158160020160179054906101000a900460ff16151514613062576040517f08c379a00000000000000000000000000000000000000000000000000000000081526004016130599061461c565b60405180910390fd5b600060046000848152602001908152602001600020905060007fffffffffffffffffffffffffffffffffffffffffffffffffffffffffffffffff905060005b8280549050811015613166573373ffffffffffffffffffffffffffffffffffffffff168382815481106130fd577f4e487b7100000000000000000000000000000000000000000000000000000000600052603260045260246000fd5b906000526020600020906005020160000160009054906101000a900473ffffffffffffffffffffffffffffffffffffffff1673ffffffffffffffffffffffffffffffffffffffff16141561315357809150613166565b808061315e90614ae7565b9150506130a1565b507fffffffffffffffffffffffffffffffffffffffffffffffffffffffffffffffff8114156131ca576040517f08c379a00000000000000000000000000000000000000000000000000000000081526004016131c19061451c565b60405180910390fd5b6000828281548110613205577f4e487b7100000000000000000000000000000000000000000000000000000000600052603260045260246000fd5b906000526020600020906005020190506000806132228684613956565b80925081935050506000811161326d576040517f08c379a00000000000000000000000000000000000000000000000000000000081526004016132649061471c565b60405180910390fd5b61329a8261ffff168460020160009054906101000a900461ffff1661ffff1661389690919063ffffffff16565b8360020160006101000a81548161ffff021916908361ffff1602179055506132cf81846003015461389690919063ffffffff16565b836003018190555060008660000160009054906101000a900473ffffffffffffffffffffffffffffffffffffffff1690508073ffffffffffffffffffffffffffffffffffffffff1663a9059cbb8560000160009054906101000a900473ffffffffffffffffffffffffffffffffffffffff16846040518363ffffffff1660e01b815260040161335f92919061449b565b602060405180830381600087803b15801561337957600080fd5b505af115801561338d573d6000803e3d6000fd5b505050506040513d601f19601f820116820180604052508101906133b19190613d84565b6133f0576040517f08c379a00000000000000000000000000000000000000000000000000000000081526004016133e79061467c565b60405180910390fd5b8360000160009054906101000a900473ffffffffffffffffffffffffffffffffffffffff1673ffffffffffffffffffffffffffffffffffffffff167fa16e441b8abf03a5884ba01f9212fdb767480542312a70ee2db2122c07fa9ce9898460405161345c929190614817565b60405180910390a25050505050505050565b61348761347a836109ea565b6134826135c4565b612aa9565b6134c6576040517f08c379a00000000000000000000000000000000000000000000000000000000081526004016134bd9061463c565b60405180910390fd5b6134d082826136ac565b5050565b6134fe7f7935bd0ae54bc31f548c14dba4d37c5c64b3f8ca900cb468fb8abd54d5894f5533612aa9565b61353d576040517f08c379a0000000000000000000000000000000000000000000000000000000008152600401613534906146dc565b60405180910390fd5b80600960146101000a81548160ff02191690831515021790555050565b60007f01ffc9a7000000000000000000000000000000000000000000000000000000007bffffffffffffffffffffffffffffffffffffffffffffffffffffffff1916827bffffffffffffffffffffffffffffffffffffffffffffffffffffffff1916149050919050565b600033905090565b6135d68282612aa9565b6136a857600160008084815260200190815260200160002060000160008373ffffffffffffffffffffffffffffffffffffffff1673ffffffffffffffffffffffffffffffffffffffff16815260200190815260200160002060006101000a81548160ff02191690831515021790555061364d6135c4565b73ffffffffffffffffffffffffffffffffffffffff168173ffffffffffffffffffffffffffffffffffffffff16837f2f8788117e7eff1d82e926ec794901d17c78024a50270940304540a733656f0d60405160405180910390a45b5050565b6136b68282612aa9565b1561378957600080600084815260200190815260200160002060000160008373ffffffffffffffffffffffffffffffffffffffff1673ffffffffffffffffffffffffffffffffffffffff16815260200190815260200160002060006101000a81548160ff02191690831515021790555061372e6135c4565b73ffffffffffffffffffffffffffffffffffffffff168173ffffffffffffffffffffffffffffffffffffffff16837ff6391f5c32d9c69d2a47ea670b442974b53935d1edc7fd64eb21e047a839171b60405160405180910390a45b5050565b613795610fed565b6137d4576040517f08c379a00000000000000000000000000000000000000000000000000000000081526004016137cb9061455c565b60405180910390fd5b6000600160006101000a81548160ff0219169083151502179055507f5db9ee0a495bf2e6ff9c91a7834c1ba4fdd244a5e8aa4e537bd38aeae4b073aa6138186135c4565b6040516138259190614449565b60405180910390a1565b600080823b905060008111915050919050565b600060018054906101000a900473ffffffffffffffffffffffffffffffffffffffff16905090565b600081836138789190614950565b905092915050565b6000818361388e91906149be565b905092915050565b600081836138a491906148fa565b905092915050565b600042905090565b6138bc610fed565b156138fc576040517f08c379a00000000000000000000000000000000000000000000000000000000081526004016138f39061465c565b60405180910390fd5b60018060006101000a81548160ff0219169083151502179055507f62e78cea01bee320cd4e420270b5ea74000d11b0c9f74754ebdbfc544b05a25861393f6135c4565b60405161394c9190614449565b60405180910390a1565b60008082600101548360030154106139a3576040517f08c379a000000000000000000000000000000000000000000000000000000000815260040161399a906146bc565b60405180910390fd5b83600101544210156139bb5760008091509150613adf565b60006139fe620151806139f06201518088600101546139da9190614a18565b6139e26138ac565b613ae690919063ffffffff16565b61386a90919063ffffffff16565b90508460020160009054906101000a900461ffff1661ffff168110613a5b576000613a3a85600301548660010154613ae690919063ffffffff16565b90508560020160009054906101000a900461ffff1681935093505050613adf565b6000613a868560020160009054906101000a900461ffff1661ffff1683613ae690919063ffffffff16565b90506000613ab78760020160009054906101000a900461ffff1661ffff16876001015461386a90919063ffffffff16565b90506000613ad2828461ffff1661388090919063ffffffff16565b9050828195509550505050505b9250929050565b60008183613af49190614a18565b905092915050565b6040518060400160405280613b0f613b1c565b8152602001606081525090565b6040518060c00160405280600073ffffffffffffffffffffffffffffffffffffffff16815260200160008152602001600061ffff168152602001600073ffffffffffffffffffffffffffffffffffffffff1681526020016000151581526020016000151581525090565b600081359050613b95816152a7565b92915050565b60008083601f840112613bad57600080fd5b8235905067ffffffffffffffff811115613bc657600080fd5b602083019150836040820283011115613bde57600080fd5b9250929050565b600081359050613bf4816152be565b92915050565b600081519050613c09816152be565b92915050565b600081359050613c1e816152d5565b92915050565b600081359050613c33816152ec565b92915050565b600081359050613c4881615303565b92915050565b600081359050613c5d8161531a565b92915050565b600081519050613c728161531a565b92915050565b600060208284031215613c8a57600080fd5b6000613c9884828501613b86565b91505092915050565b60008060008060008060008060e0898b031215613cbd57600080fd5b6000613ccb8b828c01613b86565b9850506020613cdc8b828c01613c4e565b9750506040613ced8b828c01613c39565b9650506060613cfe8b828c01613c39565b955050608089013567ffffffffffffffff811115613d1b57600080fd5b613d278b828c01613b9b565b945094505060a0613d3a8b828c01613be5565b92505060c0613d4b8b828c01613be5565b9150509295985092959890939650565b600060208284031215613d6d57600080fd5b6000613d7b84828501613be5565b91505092915050565b600060208284031215613d9657600080fd5b6000613da484828501613bfa565b91505092915050565b600060208284031215613dbf57600080fd5b6000613dcd84828501613c0f565b91505092915050565b60008060408385031215613de957600080fd5b6000613df785828601613c0f565b9250506020613e0885828601613b86565b9150509250929050565b600060208284031215613e2457600080fd5b6000613e3284828501613c24565b91505092915050565b600060208284031215613e4d57600080fd5b6000613e5b84828501613c4e565b91505092915050565b600060208284031215613e7657600080fd5b6000613e8484828501613c63565b91505092915050565b6000613e9983836142fc565b905092915050565b6000613ead83836143b4565b60a08301905092915050565b613ec281614a4c565b82525050565b613ed181614a4c565b82525050565b6000613ee282614897565b613eec81856148c7565b935083602082028501613efe85614877565b8060005b85811015613f3a5784840389528151613f1b8582613e8d565b9450613f26836148ad565b925060208a01995050600181019050613f02565b50829750879550505050505092915050565b6000613f57826148a2565b613f6181856148d8565b9350613f6c83614887565b8060005b83811015613f9d578151613f848882613ea1565b9750613f8f836148ba565b925050600181019050613f70565b5085935050505092915050565b613fb381614a5e565b82525050565b613fc281614a5e565b82525050565b613fd181614a6a565b82525050565b6000613fe4601c836148e9565b9150613fef82614b8e565b602082019050919050565b6000614007602f836148e9565b915061401282614bb7565b604082019050919050565b600061402a6014836148e9565b915061403582614c06565b602082019050919050565b600061404d6025836148e9565b915061405882614c2f565b604082019050919050565b60006140706034836148e9565b915061407b82614c7e565b604082019050919050565b60006140936030836148e9565b915061409e82614ccd565b604082019050919050565b60006140b6603d836148e9565b91506140c182614d1c565b604082019050919050565b60006140d9603f836148e9565b91506140e482614d6b565b604082019050919050565b60006140fc6024836148e9565b915061410782614dba565b604082019050919050565b600061411f6030836148e9565b915061412a82614e09565b604082019050919050565b60006141426010836148e9565b915061414d82614e58565b602082019050919050565b60006141656032836148e9565b915061417082614e81565b604082019050919050565b60006141886056836148e9565b915061419382614ed0565b606082019050919050565b60006141ab6047836148e9565b91506141b682614f45565b606082019050919050565b60006141ce602b836148e9565b91506141d982614fba565b604082019050919050565b60006141f1602d836148e9565b91506141fc82615009565b604082019050919050565b60006142146041836148e9565b915061421f82615058565b606082019050919050565b60006142376032836148e9565b9150614242826150cd565b604082019050919050565b600061425a602c836148e9565b91506142658261511c565b604082019050919050565b600061427d602d836148e9565b91506142888261516b565b604082019050919050565b60006142a06031836148e9565b91506142ab826151ba565b604082019050919050565b60006142c3602f836148e9565b91506142ce82615209565b604082019050919050565b60006142e6602c836148e9565b91506142f182615258565b604082019050919050565b600060e0830160008301516143146000860182614339565b50602083015184820360c086015261432c8282613f4c565b9150508091505092915050565b60c08201600082015161434f6000850182613eb9565b506020820151614362602085018261442b565b506040820151614375604085018261441c565b5060608201516143886060850182613eb9565b50608082015161439b6080850182613faa565b5060a08201516143ae60a0850182613faa565b50505050565b60a0820160008201516143ca6000850182613eb9565b5060208201516143dd602085018261442b565b5060408201516143f0604085018261441c565b506060820151614403606085018261442b565b5060808201516144166080850182613faa565b50505050565b61442581614aa0565b82525050565b61443481614add565b82525050565b61444381614add565b82525050565b600060208201905061445e6000830184613ec8565b92915050565b60006060820190506144796000830186613ec8565b6144866020830185613ec8565b614493604083018461443a565b949350505050565b60006040820190506144b06000830185613ec8565b6144bd602083018461443a565b9392505050565b600060208201905081810360008301526144de8184613ed7565b905092915050565b60006020820190506144fb6000830184613fb9565b92915050565b60006020820190506145166000830184613fc8565b92915050565b6000602082019050818103600083015261453581613fd7565b9050919050565b6000602082019050818103600083015261455581613ffa565b9050919050565b600060208201905081810360008301526145758161401d565b9050919050565b6000602082019050818103600083015261459581614040565b9050919050565b600060208201905081810360008301526145b581614063565b9050919050565b600060208201905081810360008301526145d581614086565b9050919050565b600060208201905081810360008301526145f5816140a9565b9050919050565b60006020820190508181036000830152614615816140cc565b9050919050565b60006020820190508181036000830152614635816140ef565b9050919050565b6000602082019050818103600083015261465581614112565b9050919050565b6000602082019050818103600083015261467581614135565b9050919050565b6000602082019050818103600083015261469581614158565b9050919050565b600060208201905081810360008301526146b58161417b565b9050919050565b600060208201905081810360008301526146d58161419e565b9050919050565b600060208201905081810360008301526146f5816141c1565b9050919050565b60006020820190508181036000830152614715816141e4565b9050919050565b6000602082019050818103600083015261473581614207565b9050919050565b600060208201905081810360008301526147558161422a565b9050919050565b600060208201905081810360008301526147758161424d565b9050919050565b6000602082019050818103600083015261479581614270565b9050919050565b600060208201905081810360008301526147b581614293565b9050919050565b600060208201905081810360008301526147d5816142b6565b9050919050565b600060208201905081810360008301526147f5816142d9565b9050919050565b6000602082019050614811600083018461443a565b92915050565b600060408201905061482c600083018561443a565b614839602083018461443a565b9392505050565b6000606082019050614855600083018661443a565b614862602083018561443a565b61486f604083018461443a565b949350505050565b6000819050602082019050919050565b6000819050602082019050919050565b600081519050919050565b600081519050919050565b6000602082019050919050565b6000602082019050919050565b600082825260208201905092915050565b600082825260208201905092915050565b600082825260208201905092915050565b600061490582614add565b915061491083614add565b9250827fffffffffffffffffffffffffffffffffffffffffffffffffffffffffffffffff0382111561494557614944614b30565b5b828201905092915050565b600061495b82614add565b915061496683614add565b92508261497657614975614b5f565b5b828204905092915050565b600061498c82614ace565b915061499783614ace565b92508162ffffff04831182151516156149b3576149b2614b30565b5b828202905092915050565b60006149c982614add565b91506149d483614add565b9250817fffffffffffffffffffffffffffffffffffffffffffffffffffffffffffffffff0483118215151615614a0d57614a0c614b30565b5b828202905092915050565b6000614a2382614add565b9150614a2e83614add565b925082821015614a4157614a40614b30565b5b828203905092915050565b6000614a5782614aae565b9050919050565b60008115159050919050565b6000819050919050565b60007fffffffff0000000000000000000000000000000000000000000000000000000082169050919050565b600061ffff82169050919050565b600073ffffffffffffffffffffffffffffffffffffffff82169050919050565b600062ffffff82169050919050565b6000819050919050565b6000614af282614add565b91507fffffffffffffffffffffffffffffffffffffffffffffffffffffffffffffffff821415614b2557614b24614b30565b5b600182019050919050565b7f4e487b7100000000000000000000000000000000000000000000000000000000600052601160045260246000fd5b7f4e487b7100000000000000000000000000000000000000000000000000000000600052601260045260246000fd5b7f4c6f636b6c6574546f6b656e5661756c743a20466f7262696464656e00000000600082015250565b7f416363657373436f6e74726f6c3a2073656e646572206d75737420626520616e60008201527f2061646d696e20746f206772616e740000000000000000000000000000000000602082015250565b7f5061757361626c653a206e6f7420706175736564000000000000000000000000600082015250565b7f4c6f636b6c6574546f6b656e5661756c743a204c6f636b206e6f74207265766f60008201527f6361626c65000000000000000000000000000000000000000000000000000000602082015250565b7f4c6f636b6c6574546f6b656e5661756c743a2054686520746f74616c20616d6f60008201527f756e7420697320657175616c20746f207a65726f000000000000000000000000602082015250565b7f4c6f636b6c6574546f6b656e5661756c743a20526566756e6420746f6b656e7360008201527f207472616e73666572206661696c656400000000000000000000000000000000602082015250565b7f4c6f636b6c6574546f6b656e5661756c743a20546869732076657273696f6e2060008201527f6f662074686520636f6e74726163742069732064657072656361746564000000602082015250565b7f4c6f636b6c6574546f6b656e5661756c743a2054686520756e6c6f636b65642060008201527f616d6f756e74207065722064617920697320657175616c20746f207a65726f00602082015250565b7f4c6f636b6c6574546f6b656e5661756c743a204c6f636b206e6f74206578697360008201527f74696e6700000000000000000000000000000000000000000000000000000000602082015250565b7f416363657373436f6e74726f6c3a2073656e646572206d75737420626520616e60008201527f2061646d696e20746f207265766f6b6500000000000000000000000000000000602082015250565b7f5061757361626c653a2070617573656400000000000000000000000000000000600082015250565b7f4c6f636b6c6574546f6b656e5661756c743a20556e6c6f636b656420746f6b6560008201527f6e73207472616e73666572206661696c65640000000000000000000000000000602082015250565b7f4c6f636b6c6574546f6b656e5661756c743a205468652063616c63756c61746560008201527f6420746f74616c20616d6f756e74206973206e6f7420657175616c20746f207460208201527f68652061637475616c20746f74616c20616d6f756e7400000000000000000000604082015250565b7f4c6f636b6c6574546f6b656e5661756c743a2054686520726563697069656e7460008201527f2068617320616c726561647920636c61696d656420746865206d6178696d756d60208201527f20616d6f756e7400000000000000000000000000000000000000000000000000604082015250565b7f4c6f636b6c6574546f6b656e5661756c743a2043616c6c6572206973206e6f7460008201527f206120474f5645524e4f52000000000000000000000000000000000000000000602082015250565b7f4c6f636b6c6574546f6b656e5661756c743a20546f6b656e20696e737566666960008201527f6369656e742062616c616e636500000000000000000000000000000000000000602082015250565b7f4c6f636b6c6574546f6b656e5661756c743a2054686520616d6f756e74206f6660008201527f20756e6c6f636b656420746f6b656e7320697320657175616c20746f207a657260208201527f6f00000000000000000000000000000000000000000000000000000000000000604082015250565b7f4c6f636b6c6574546f6b656e5661756c743a20546f6b656e206164647265737360008201527f206973206e6f74206120636f6e74726163740000000000000000000000000000602082015250565b7f4c6f636b6c6574546f6b656e5661756c743a2054686520696e69746961746f7260008201527f20686173206e6f206c6f636b0000000000000000000000000000000000000000602082015250565b7f4c6f636b6c6574546f6b656e5661756c743a204e6f7420656e6f756768204c4b60008201527f5420746f20706179206665657300000000000000000000000000000000000000602082015250565b7f4c6f636b6c6574546f6b656e5661756c743a204e6f20726566756e6420666f7560008201527f6e6420666f72207468697320746f6b656e000000000000000000000000000000602082015250565b7f416363657373436f6e74726f6c3a2063616e206f6e6c792072656e6f756e636560008201527f20726f6c657320666f722073656c660000000000000000000000000000000000602082015250565b7f4c6f636b6c6574546f6b656e5661756c743a2054686520726563697069656e7460008201527f20686173206e6f206c6f636b0000000000000000000000000000000000000000602082015250565b6152b081614a4c565b81146152bb57600080fd5b50565b6152c781614a5e565b81146152d257600080fd5b50565b6152de81614a6a565b81146152e957600080fd5b50565b6152f581614a74565b811461530057600080fd5b50565b61530c81614aa0565b811461531757600080fd5b50565b61532381614add565b811461532e57600080fd5b5056fea2646970667358221220b6d18e5fdcaf080f68f2535d78ff3d84638174c96e4363d32f90a28f0641892a64736f6c63430008030033",
  "immutableReferences": {},
  "source": "// contracts/LockletTokenVault.sol\r\n// SPDX-License-Identifier: No License\r\n\r\npragma solidity ^0.8.0;\r\n\r\nimport \"@openzeppelin/contracts/utils/math/SafeMath.sol\";\r\nimport \"@openzeppelin/contracts/utils/Address.sol\";\r\nimport \"@openzeppelin/contracts/access/AccessControl.sol\";\r\nimport \"@openzeppelin/contracts/security/Pausable.sol\";\r\nimport \"@openzeppelin/contracts/token/ERC20/ERC20.sol\";\r\n\r\nimport \"./LockletToken.sol\";\r\n\r\ncontract LockletTokenVault is AccessControl, Pausable {\r\n    using SafeMath for uint256;\r\n    using SafeMath for uint256;\r\n    using SafeMath for uint16;\r\n\r\n    bytes32 public constant GOVERNOR_ROLE = keccak256(\"GOVERNOR_ROLE\");\r\n\r\n    address public lockletTokenAddress;\r\n\r\n    struct RecipientCallData {\r\n        address recipientAddress;\r\n        uint256 amount;\r\n    }\r\n\r\n    struct Recipient {\r\n        address recipientAddress;\r\n        uint256 amount;\r\n        uint16 daysClaimed;\r\n        uint256 amountClaimed;\r\n        bool isActive;\r\n    }\r\n\r\n    struct Lock {\r\n        address tokenAddress;\r\n        uint256 startTime;\r\n        uint16 durationInDays;\r\n        address initiatorAddress;\r\n        bool isRevocable;\r\n        bool isActive;\r\n    }\r\n\r\n    struct LockWithRecipients {\r\n        Lock lock;\r\n        Recipient[] recipients;\r\n    }\r\n\r\n    uint256 private _nextLockIndex;\r\n    Lock[] private _locks;\r\n    mapping(uint256 => Recipient[]) private _locksRecipients;\r\n\r\n    mapping(address => uint256[]) private _initiatorsLocksIndexes;\r\n    mapping(address => uint256[]) private _recipientsLocksIndexes;\r\n\r\n    mapping(address => mapping(address => uint256)) private _refunds;\r\n\r\n    address private _stakersRedisAddress;\r\n    address private _foundationRedisAddress;\r\n    bool private _isDeprecated;\r\n\r\n    // #region Governance Variables\r\n\r\n    uint256 private _creationFlatFeeLktAmount;\r\n    uint256 private _revocationFlatFeeLktAmount;\r\n\r\n    uint256 private _creationPercentFee;\r\n\r\n    // #endregion\r\n\r\n    // #region Events\r\n\r\n    event LockAdded(uint256 lockIndex);\r\n    event LockedTokensClaimed(uint256 lockIndex, address indexed recipientAddress, uint256 claimedAmount);\r\n    event LockRevoked(uint256 lockIndex, uint256 unlockedAmount, uint256 remainingLockedAmount);\r\n    event LockRefundPulled(address indexed recipientAddress, address indexed tokenAddress, uint256 refundedAmount);\r\n\r\n    // #endregion\r\n\r\n    constructor(address lockletTokenAddr) {\r\n        lockletTokenAddress = lockletTokenAddr;\r\n\r\n        _nextLockIndex = 0;\r\n\r\n        _stakersRedisAddress = address(0);\r\n        _foundationRedisAddress = 0x25Bd291bE258E90e7A0648aC5c690555aA9e8930;\r\n        _isDeprecated = false;\r\n\r\n        _creationFlatFeeLktAmount = 0;\r\n        _revocationFlatFeeLktAmount = 0;\r\n        _creationPercentFee = 0;\r\n\r\n        _setupRole(DEFAULT_ADMIN_ROLE, msg.sender);\r\n        _setupRole(GOVERNOR_ROLE, msg.sender);\r\n    }\r\n\r\n    function addLock(\r\n        address tokenAddress,\r\n        uint256 totalAmount,\r\n        uint16 cliffInDays,\r\n        uint16 durationInDays,\r\n        RecipientCallData[] calldata recipientsData,\r\n        bool isRevocable,\r\n        bool payFeesWithLkt\r\n    ) external whenNotPaused contractNotDeprecated {\r\n        require(Address.isContract(tokenAddress), \"LockletTokenVault: Token address is not a contract\");\r\n        ERC20 token = ERC20(tokenAddress);\r\n\r\n        require(totalAmount > 0, \"LockletTokenVault: The total amount is equal to zero\");\r\n\r\n        if (payFeesWithLkt) {\r\n            LockletToken lktToken = lockletToken();\r\n            require(lktToken.balanceOf(msg.sender) >= _creationFlatFeeLktAmount, \"LockletTokenVault: Not enough LKT to pay fees\");\r\n            require(lktToken.transferFrom(msg.sender, address(this), _creationFlatFeeLktAmount));\r\n\r\n            uint256 burnAmount = _creationFlatFeeLktAmount.div(100).mul(45);\r\n            uint256 stakersRedisAmount = _creationFlatFeeLktAmount.div(100).mul(45);\r\n            uint256 foundationRedisAmount = _creationFlatFeeLktAmount.div(100).mul(10);\r\n\r\n            require(lktToken.burn(burnAmount));\r\n            require(lktToken.transferFrom(address(this), _stakersRedisAddress, stakersRedisAmount));\r\n            require(lktToken.transferFrom(address(this), _foundationRedisAddress, foundationRedisAmount));\r\n\r\n            require(token.balanceOf(msg.sender) >= totalAmount, \"LockletTokenVault: Token insufficient balance\");\r\n            require(token.transferFrom(msg.sender, address(this), totalAmount));\r\n        } else {\r\n            uint256 creationPercentFeeAmount = totalAmount.div(100).mul(_creationPercentFee);\r\n            uint256 totalAmountWithFees = totalAmount.add(creationPercentFeeAmount);\r\n\r\n            require(token.balanceOf(msg.sender) >= totalAmountWithFees, \"LockletTokenVault: Token insufficient balance\");\r\n            require(token.transferFrom(msg.sender, address(this), totalAmountWithFees));\r\n\r\n            uint256 stakersRedisAmount = creationPercentFeeAmount.div(100).mul(90);\r\n            uint256 foundationRedisAmount = creationPercentFeeAmount.div(100).mul(10);\r\n\r\n            require(token.transferFrom(address(this), _stakersRedisAddress, stakersRedisAmount));\r\n            require(token.transferFrom(address(this), _foundationRedisAddress, foundationRedisAmount));\r\n        }\r\n\r\n        uint256 lockIndex = _nextLockIndex;\r\n        _nextLockIndex = _nextLockIndex.add(1);\r\n\r\n        Lock memory lock = Lock({\r\n            tokenAddress: tokenAddress,\r\n            startTime: blockTime().add(cliffInDays * 1 days),\r\n            durationInDays: durationInDays,\r\n            initiatorAddress: msg.sender,\r\n            isRevocable: durationInDays > 1 ? isRevocable : false,\r\n            isActive: true\r\n        });\r\n\r\n        _locks.push(lock);\r\n        _initiatorsLocksIndexes[msg.sender].push(lockIndex);\r\n\r\n        uint256 totalAmountCheck = 0;\r\n\r\n        for (uint256 i = 0; i < recipientsData.length; i++) {\r\n            RecipientCallData calldata recipientData = recipientsData[i];\r\n\r\n            uint256 unlockedAmountPerDay = recipientData.amount.div(durationInDays);\r\n            require(unlockedAmountPerDay > 0, \"LockletTokenVault: The unlocked amount per day is equal to zero\");\r\n\r\n            totalAmountCheck = totalAmountCheck.add(recipientData.amount);\r\n\r\n            Recipient memory recipient = Recipient({\r\n                recipientAddress: recipientData.recipientAddress,\r\n                amount: recipientData.amount,\r\n                daysClaimed: 0,\r\n                amountClaimed: 0,\r\n                isActive: true\r\n            });\r\n\r\n            _recipientsLocksIndexes[recipientData.recipientAddress].push(lockIndex);\r\n            _locksRecipients[lockIndex].push(recipient);\r\n        }\r\n\r\n        require(totalAmountCheck == totalAmount, \"LockletTokenVault: The calculated total amount is not equal to the actual total amount\");\r\n\r\n        emit LockAdded(lockIndex);\r\n    }\r\n\r\n    function claimLockedTokens(uint256 lockIndex) external whenNotPaused {\r\n        Lock storage lock = _locks[lockIndex];\r\n        require(lock.isActive == true, \"LockletTokenVault: Lock not existing\");\r\n\r\n        Recipient[] storage recipients = _locksRecipients[lockIndex];\r\n\r\n        int256 recipientIndex = -1;\r\n        for (uint256 i = 0; i < recipients.length; i++) {\r\n            if (recipients[i].recipientAddress == msg.sender) {\r\n                recipientIndex = int256(i);\r\n                break;\r\n            }\r\n        }\r\n        require(recipientIndex != -1, \"LockletTokenVault: Forbidden\");\r\n\r\n        Recipient storage recipient = recipients[uint256(recipientIndex)];\r\n\r\n        uint16 daysVested;\r\n        uint256 unlockedAmount;\r\n        (daysVested, unlockedAmount) = calculateClaim(lock, recipient);\r\n        require(unlockedAmount > 0, \"LockletTokenVault: The amount of unlocked tokens is equal to zero\");\r\n\r\n        recipient.daysClaimed = uint16(recipient.daysClaimed.add(daysVested));\r\n        recipient.amountClaimed = uint256(recipient.amountClaimed.add(unlockedAmount));\r\n\r\n        ERC20 token = ERC20(lock.tokenAddress);\r\n\r\n        require(token.transfer(recipient.recipientAddress, unlockedAmount), \"LockletTokenVault: Unlocked tokens transfer failed\");\r\n        emit LockedTokensClaimed(lockIndex, recipient.recipientAddress, unlockedAmount);\r\n    }\r\n\r\n    function revokeLock(uint256 lockIndex) external whenNotPaused {\r\n        Lock storage lock = _locks[lockIndex];\r\n        require(lock.isActive == true, \"LockletTokenVault: Lock not existing\");\r\n        require(lock.initiatorAddress == msg.sender, \"LockletTokenVault: Forbidden\");\r\n        require(lock.isRevocable == true, \"LockletTokenVault: Lock not revocable\");\r\n\r\n        LockletToken lktToken = lockletToken();\r\n        require(lktToken.balanceOf(msg.sender) >= _revocationFlatFeeLktAmount, \"LockletTokenVault: Not enough LKT to pay fees\");\r\n        require(lktToken.transferFrom(msg.sender, address(this), _revocationFlatFeeLktAmount));\r\n\r\n        uint256 burnAmount = _creationFlatFeeLktAmount.div(100).mul(45);\r\n        uint256 stakersRedisAmount = _creationFlatFeeLktAmount.div(100).mul(45);\r\n        uint256 foundationRedisAmount = _creationFlatFeeLktAmount.div(100).mul(10);\r\n\r\n        require(lktToken.burn(burnAmount));\r\n        require(lktToken.transferFrom(address(this), _stakersRedisAddress, stakersRedisAmount));\r\n        require(lktToken.transferFrom(address(this), _foundationRedisAddress, foundationRedisAmount));\r\n\r\n        Recipient[] storage recipients = _locksRecipients[lockIndex];\r\n\r\n        address tokenAddr = lock.tokenAddress;\r\n        address initiatorAddr = lock.initiatorAddress;\r\n\r\n        uint256 totalAmount = 0;\r\n        uint256 totalUnlockedAmount = 0;\r\n\r\n        for (uint256 i = 0; i < recipients.length; i++) {\r\n            Recipient storage recipient = recipients[i];\r\n\r\n            totalAmount = totalAmount.add(recipient.amount);\r\n\r\n            uint16 daysVested;\r\n            uint256 unlockedAmount;\r\n            (daysVested, unlockedAmount) = calculateClaim(lock, recipient);\r\n\r\n            if (unlockedAmount > 0) {\r\n                address recipientAddr = recipient.recipientAddress;\r\n                _refunds[recipientAddr][tokenAddr] = _refunds[recipientAddr][tokenAddr].add(unlockedAmount);\r\n            }\r\n\r\n            totalUnlockedAmount = totalUnlockedAmount.add(recipient.amountClaimed.add(unlockedAmount));\r\n        }\r\n\r\n        uint256 totalLockedAmount = totalAmount.sub(totalUnlockedAmount);\r\n        _refunds[initiatorAddr][tokenAddr] = _refunds[initiatorAddr][tokenAddr].add(totalLockedAmount);\r\n\r\n        emit LockRevoked(lockIndex, totalUnlockedAmount, totalLockedAmount);\r\n    }\r\n\r\n    function pullRefund(address tokenAddress) external whenNotPaused {\r\n        uint256 refundAmount = _refunds[msg.sender][tokenAddress];\r\n        require(refundAmount > 0, \"LockletTokenVault: No refund found for this token\");\r\n\r\n        _refunds[msg.sender][tokenAddress] = 0;\r\n\r\n        ERC20 token = ERC20(tokenAddress);\r\n        require(token.transfer(msg.sender, refundAmount), \"LockletTokenVault: Refund tokens transfer failed\");\r\n\r\n        emit LockRefundPulled(msg.sender, tokenAddress, refundAmount);\r\n    }\r\n\r\n    // #region Views\r\n\r\n    function getLocksByInitiator(address initiatorAddress) public view returns (LockWithRecipients[] memory) {\r\n        uint256 locksCount = _initiatorsLocksIndexes[initiatorAddress].length;\r\n        require(locksCount > 0, \"LockletTokenVault: The initiator has no lock\");\r\n\r\n        LockWithRecipients[] memory lockWithRecipients = new LockWithRecipients[](locksCount);\r\n\r\n        for (uint256 i = 0; i < locksCount; i++) {\r\n            uint256 lockIndex = _initiatorsLocksIndexes[initiatorAddress][i];\r\n\r\n            lockWithRecipients[i] = LockWithRecipients({lock: _locks[lockIndex], recipients: _locksRecipients[lockIndex]});\r\n        }\r\n\r\n        return lockWithRecipients;\r\n    }\r\n\r\n    function getLocksByRecipient(address recipientAddress) public view returns (LockWithRecipients[] memory) {\r\n        uint256 locksCount = _recipientsLocksIndexes[recipientAddress].length;\r\n        require(locksCount > 0, \"LockletTokenVault: The recipient has no lock\");\r\n\r\n        LockWithRecipients[] memory lockWithRecipients = new LockWithRecipients[](locksCount);\r\n\r\n        for (uint256 i = 0; i < locksCount; i++) {\r\n            uint256 lockIndex = _recipientsLocksIndexes[recipientAddress][i];\r\n\r\n            lockWithRecipients[i] = LockWithRecipients({lock: _locks[lockIndex], recipients: _locksRecipients[lockIndex]});\r\n        }\r\n\r\n        return lockWithRecipients;\r\n    }\r\n\r\n    function getCreationFlatFeeLktAmount() public view returns (uint256) {\r\n        return _creationFlatFeeLktAmount;\r\n    }\r\n\r\n    function getRevocationFlatFeeLktAmount() public view returns (uint256) {\r\n        return _revocationFlatFeeLktAmount;\r\n    }\r\n\r\n    function getCreationPercentFee() public view returns (uint256) {\r\n        return _creationPercentFee;\r\n    }\r\n\r\n    function isDeprecated() public view returns (bool) {\r\n        return _isDeprecated;\r\n    }\r\n\r\n    function calculateClaim(Lock storage lock, Recipient storage recipient) private view returns (uint16, uint256) {\r\n        require(recipient.amountClaimed < recipient.amount, \"LockletTokenVault: The recipient has already claimed the maximum amount\");\r\n\r\n        if (block.timestamp < lock.startTime) {\r\n            return (0, 0);\r\n        }\r\n\r\n        // check if cliff has reached\r\n        uint256 elapsedDays = blockTime().sub(lock.startTime - 1 days).div(1 days);\r\n\r\n        if (elapsedDays >= lock.durationInDays) {\r\n            // if over duration, all tokens vested\r\n            uint256 remainingAmount = recipient.amount.sub(recipient.amountClaimed);\r\n            return (lock.durationInDays, remainingAmount);\r\n        } else {\r\n            uint16 daysVested = uint16(elapsedDays.sub(recipient.daysClaimed));\r\n            uint256 unlockedAmountPerDay = recipient.amount.div(uint256(lock.durationInDays));\r\n            uint256 unlockedAmount = uint256(daysVested.mul(unlockedAmountPerDay));\r\n            return (daysVested, unlockedAmount);\r\n        }\r\n    }\r\n\r\n    function blockTime() private view returns (uint256) {\r\n        return block.timestamp;\r\n    }\r\n\r\n    function lockletToken() private view returns (LockletToken) {\r\n        return LockletToken(lockletTokenAddress);\r\n    }\r\n\r\n    // #endregion\r\n\r\n    // #region Governance\r\n\r\n    function setCreationFlatFeeLktAmount(uint256 amount) external onlyGovernor {\r\n        _creationFlatFeeLktAmount = amount;\r\n    }\r\n\r\n    function setRevocationFlatFeeLktAmount(uint256 amount) external onlyGovernor {\r\n        _revocationFlatFeeLktAmount = amount;\r\n    }\r\n\r\n    function setCreationPercentFee(uint256 amount) external onlyGovernor {\r\n        _creationPercentFee = amount;\r\n    }\r\n\r\n    function setStakersRedisAddress(address addr) external onlyGovernor {\r\n        _stakersRedisAddress = addr;\r\n    }\r\n\r\n    function pause() external onlyGovernor {\r\n        _pause();\r\n    }\r\n\r\n    function unpause() external onlyGovernor {\r\n        _unpause();\r\n    }\r\n\r\n    function setDeprecated(bool deprecated) external onlyGovernor {\r\n        _isDeprecated = deprecated;\r\n    }\r\n\r\n    // #endregion\r\n\r\n    // #region Modifiers\r\n\r\n    modifier onlyGovernor {\r\n        require(hasRole(GOVERNOR_ROLE, msg.sender), \"LockletTokenVault: Caller is not a GOVERNOR\");\r\n        _;\r\n    }\r\n\r\n    modifier contractNotDeprecated {\r\n        require(!_isDeprecated, \"LockletTokenVault: This version of the contract is deprecated\");\r\n        _;\r\n    }\r\n\r\n    // #endregion\r\n}\r\n",
  "sourcePath": "E:/Github/locklet-evm-contracts/contracts/LockletTokenVault.sol",
  "compiler": {
    "name": "solc",
    "version": "0.8.3+commit.8d00100c.Emscripten.clang"
  },
  "schemaVersion": "3.3.4",
  "updatedAt": "2021-08-10T20:10:12.458Z",
  "networkType": "ethereum",
  "devdoc": {
    "kind": "dev",
    "methods": {
      "getRoleAdmin(bytes32)": {
        "details": "Returns the admin role that controls `role`. See {grantRole} and {revokeRole}. To change a role's admin, use {_setRoleAdmin}."
      },
      "grantRole(bytes32,address)": {
        "details": "Grants `role` to `account`. If `account` had not been already granted `role`, emits a {RoleGranted} event. Requirements: - the caller must have ``role``'s admin role."
      },
      "hasRole(bytes32,address)": {
        "details": "Returns `true` if `account` has been granted `role`."
      },
      "paused()": {
        "details": "Returns true if the contract is paused, and false otherwise."
      },
      "renounceRole(bytes32,address)": {
        "details": "Revokes `role` from the calling account. Roles are often managed via {grantRole} and {revokeRole}: this function's purpose is to provide a mechanism for accounts to lose their privileges if they are compromised (such as when a trusted device is misplaced). If the calling account had been granted `role`, emits a {RoleRevoked} event. Requirements: - the caller must be `account`."
      },
      "revokeRole(bytes32,address)": {
        "details": "Revokes `role` from `account`. If `account` had been granted `role`, emits a {RoleRevoked} event. Requirements: - the caller must have ``role``'s admin role."
      },
      "supportsInterface(bytes4)": {
        "details": "See {IERC165-supportsInterface}."
      }
    },
    "version": 1
  },
  "userdoc": {
    "kind": "user",
    "methods": {},
    "version": 1
  }
}